:020000002100DD
:02001300218248
:02001B00412F73
:0F010000D28AD2AAD2AFC291C29075A002D29376
:0F010F00C29312027175A002D293C293120271B1
:0F011E0075A008D293C29312027175A000D293FC
:0F012D00C29312027175A00CD293C29312027189
:0F013C00C29175A008D293C29312027175A000F0
:10014B00D293C293120271D291900FD0E493602597
:0F015B00F8E854F0C4C2E4C2E5C2E6C2E7F5A07A
:10016A00D293C293120271E8540FF5A0D293C293AC
:0E017A00120271A380D780FEE533600280463A
:0F018800758910758DFF758BF675300075310018
:10019700753200D2ABD28EC29175A00CD293C293A6
:0F01A70012027175A000D293C293120271C2911D
:0F01B60075A000D293C29312027175A00FD2935D
:1001C500C29312027175330132C28EC2AB75330010
:0F01D500C29175A00CD293C29312027175A00053
:1001E400D293C293120271D291E532243012025694
:1001F400742E120256E5312430120256E5302430B2
:0F020400120256746D1202567473120256C29192
:10021300740C54F0C4F5A0D293C293120271740CFF
:0E022300540FF5A0D293C29312027132C28F13
:10023100758DFF758BF60530E530B40A1775300002
:0E0241000531E531B40A0D7531000532E532A4
:10024F00B4040375320032F8E854F0C4F5A0D29329
:0E025F00C293120271E8540FF5A0D293C2931D
:0A026D0012027122000000000022BE
:100FD00042756C61746F7620412E59752E20343223
:030FE000343100A9
:00000001FF
