:020000002100DD
:02001300218248
:02001B00410D95
:0F010000D28AD2AAD2AFC291C29075A002D29376
:0F010F00C29312024F75A002D293C29312024FF5
:0F011E0075A008D293C29312024F75A000D2931E
:0F012D00C29312024F75A00CD293C29312024FCD
:0F013C00C29175A008D293C29312024F75A00012
:10014B00D293C29312024FD291900FD0E4936025B9
:0F015B00F8E854F0C4C2E4C2E5C2E6C2E7F5A07A
:10016A00D293C29312024FE8540FF5A0D293C293CE
:0E017A0012024FA380D780FE20A04575891089
:0F018800758DFF758BF67530007531007532007F
:10019700D2ABD28EC29175A00CD293C29312024FEA
:0F01A70075A000D293C29312024FC29175A000AF
:0E01B600D293C29312024F75A00FD293C29340
:0E01C40012024FD2A032C28EC2ABC2A0C291B4
:0F01D20075A00CD293C29312024F75A000D29366
:1001E100C29312024FD291E5322430120234742E9E
:0E01F100120234E5312430120234E53024309D
:1001FF00120234746D120234747312023432C28FCD
:10020F00758DFF758BF60530E530B40A1775300024
:0E021F000531E531B40A0D7531000532E532C6
:10022D00B40A0375320032F8E854F0C4F5A0D29345
:0E023D00C29312024FE8540FF5A0D293C29361
:0A024B0012024F2200000000002202
:100FD00042756C61746F7620412E59752E20343223
:030FE000343100A9
:00000001FF
